:1021530000A8C0003F065B4F666D7D077F6F0008D8
:0E21630040014148BF86DBCFE6EDFD87FFEF70
:10122D00013C00012F00023400000136AA012E00FE
:10123D0001300002310000013300023A0000012D9F
:08124D00000137000238000027
:04232E007FE4DFFE6B
:012332002288
:02200400AE0725
:10200600A2AF9210C2AFD2C112232EE4FDEE13B3DB
:1020160092C1EEC313FE12232E0DBD08F0C2C112EB
:09202600232E12232EA21092AF0A
:01202F00228E
:0820AB008B0C8A0D890E8D0FCC
:1020B300E4FCECC3950F5015AB0CAA0DA90E8C8252
:0D20C3007583001208F6FF1220040C80E562
:0120D00022ED
:1021C8007528AA8F298D2A8B2BEF2D2BF52C7B00B8
:0B21D8007A0079287D057C000220833E
:101BDF00C3EF9464EE940050047E007F64D3EF94BF
:101BEF00B6EE940340047E037FB6C3E49FFF7402F6
:101BFF009EFE7C007D0A1209457D0E1209ACEF2472
:101C0F00FAFFE43EAB07FAC3648094805003E4FA12
:101C1F00FBD3EB9458EA6480948240047A027B5899
:101C2F007C007D0AAF03AE021209AC8F1AAE02AF71
:101C3F00037C007D0A1209ACAB05AD1A7F020221AD
:011C4F00C8CC
:10221800AB07AA06EB7802CEC313CE13D8F9FDEBB1
:082228005403FB7F030221C8EF
:10133E00AF24852508852609E5082F250965276030
:10134E000302143CEF24EFB40700400302143C9058
:10135E00136B75F003A4C58325F0C5837302138048
:10136E0002138A0213AB0213CA0213D10213D8025C
:0C137E00140D85082E850930E4F533229B
:10138A00E508F50AE509F50BD3E50B9400E50A949F
:10139A0000500302143C7D0A7C00AF0BAE0A021A0D
:0113AA00F052
:1013AB007D07E4FF1222E2AF08AD09750F0A751035
:1013BB000A75110A75120A75130A7B0A0221148524
:1013CB000837752D0122E4F53C85082F22E53CC337
:1013DB0094965011AF3C053C74002FF582E4340019
:1013EB00F583E508F0E5096048E53CC39496504168
:1013FB00AF3C053C74002FF582E43400F583E5091E
:10140B00F022E53CD394004028752E04E4F5337BA1
:10141B00017A007900AD3C1220ABAF3C7E007C0022
:10142B007D0C120945EF2496F535E43EF534E4F5D1
:01143B003C74
:01143C00228D
:1021FE00122251BF0113E53B453A700DF53A753B7E
:0A220E003CFB7D017F011221C82274
:102134001223068F08E508B40106E4FB7D0180093B
:0E214400E508B40209E4FB7D027F061221C803
:01215200226A
:101D4E007F03121DDFBF01067B017D0580367F05F7
:101D5E00121DDFBF01067B017D0180287F02121D4F
:101D6E00DFBF01067B017D02801A7F04121DDFBFDB
:101D7E0001067B017D03800C7F01121DDFBF01096F
:0A1D8E007B017D047F041221C822AE
:1020D100E4FF121EAFBF01097B017D107F041221B5
:1020E100C87F01121EAFBF01097B017D117F041260
:0320F10021C822E1
:100B7D000532E53270020531AE31FF7C007D641225
:100B8D0009578C178D18D3E53B9400E53A94004036
:100B9D0008E53B153B7002153AD3E5359400E53475
:100BAD0094004018E535153570021534E53545349A
:100BBD00700AE52EB40405E4F52EF533E52DD39436
:100BCD00004060E5377028E52DB401107D087C00EC
:100BDD007F847E03121AF0752D0F8047E52DB40228
:100BED000A7D0A7C007F4C7E04802C152D8034E517
:100BFD00376401702BE52DB401107D0A7C007F2632
:100C0D007E05121AF0752D0C8019E52DB4020D7D9F
:100C1D000C7C007F207E06121AF08004152D8003B7
:100C2D00E4F52DAE31AF327C007D05120957ED4C48
:050C3D006003020D74CC
:100C4200F519E52EB408004003020D6C900C55F81E
:100C5200282873020C6D020CAC020CC3020CE602D3
:100C62000D0D020D38020D3D020D67E5332401FF23
:100C7200E433FE7C007D0E1209578D33E533C394B5
:100C8200085012AF33A8077401088002C333D8FC9E
:100C9200F519020D6FC3740E9533FFF874010880C5
:100CA20002C333D8FCF519020D6FE533045403F582
:100CB20033C3940250047FFF80027F008F19020D1C
:100CC2006FE5332401FFE433FE7C007D14120957E3
:100CD2008D33E533C3940A50047F0380027F018F72
:100CE20019020D6FE533045407F533C374089533C5
:100CF200FFF87407088002C313D8FCFFAE33A806BE
:100D02007407088002C333D8FC8055E53375F003BD
:100D1200A4045407F533C374079533FFF87401082C
:100D22008002C333D8FCFFAE33A8067401088002E8
:100D3200C333D8FC802A7519E08032E533045407A6
:100D4200F533C374079533FFF87401088002C33387
:100D5200D8FCFFAE33A8067401088002C333D8FC66
:100D62004FF51980088530198003E4F519AF19127F
:020D720023223A
:100D7400E5184517701712230E78087C007D007E55
:100D8400007F0A1208D0AF0DAE0C021BDFE5186419
:100D9400194517701712230E78087C007D007E0019
:100DA4007F0A1208D0AF0FAE0E022218E518643283
:100DB4004517702912231578127C007D007E007F70
:100DC400051208D0E47B0AFAF9F8AF15AE14AD1396
:100DD400AC12120A83AD07AB167F078049E518648D
:100DE4004B451770120539E53970020538E538FDB1
:100DF400E539FB7F08802FAE31AF327C007D1412C1
:100E04000957ED640A4C7021121CA9D3EF9400EE2B
:100E1400648094804013EF94FFEE648094805009C2
:090E2400AD07E4FB7F051221C8B3
:010E2D0022A2
:1017A20012218E1221AB1221711221E31220F47F39
:1017B20098121FA27F03121F6C7F007EC27D017CE4
:1017C20000121B68C2C1C2C2D2C3D2C4750D007559
:1017D2000E00750F367510007511017B007A0079C5
:1017E200237D057C00121FD37BFF7A13793E7F098C
:1017F200121A737BFF7A2179FE7F06121A737BFF1E
:101802007A2179347F05121A737BFF7A1D794E7F14
:1018120007121A737BFF7A2079D17F04121A737B25
:10182200FF7A0B797D7F01121A737FAA122322128B
:071832002328121F2E80FB8A
:0922D9008B88898C88898F888923
:101255005201108686008686008686008686008670
:091265008600868600410105099E
:03002B0002231C91
:06231C0053BCEFD20F32AA
:020E2E00155C51
:100E3000200F03020FD7C20F900104E0B409004055
:100E400003020FB9900E4BF8282873020E92020E7F
:100E500066020E78020EA4020E66020E78020EBB27
:100E6000020E66020E78AFBDEFFEADBE7C00E42D33
:100E7000FFEC3E900106803CAFBDEFFEADBE7C00B6
:100E8000E42DFFEC3E900108F0A3EFF0751E010287
:100E90000FBFAFBDEFFEADBE7C00E42DFFEC3E907A
:100EA000010A8010AFBDEFFEADBE7C00E42DFFEC6B
:100EB0003E90010CF0A3EFF0020FBFAFBDEFFEAD0F
:100EC000BE7C00E42DFFEC3E90010EF0A3EFF0900D
:100ED000010EE0FEA3E07807CEC313CE13D8F9A825
:100EE0005CF6C394065013A85CE675F003A42410C6
:100EF000F582E43401F583E014F0900105E014F08C
:100F00006003020FBF7409F0A85CE4F6A85CE6FF7A
:100F1000C394064003020FBFEF75F003A42410F53D
:100F200082E43401F583E0C39480502AE6FF75F033
:100F300003A42411F582E43401F583E0D3948040C6
:100F400040EF75F003A42412F582E43401F58374B4
:100F500001F0F51F802BA85CE6FF75F003A42411B7
:100F6000F582E43401F583E0C394805014EF75F00A
:100F700003A42412F582E43401F5837402F0751F92
:100F800001A85CE6FF75F003A42410F582E43401A7
:100F9000F583E0FEEF75F003A42411F582E434013B
:100FA000F583EEF0E675F003A42410F582E4340135
:100FB000F5837486F006020F0C90010474FFF09024
:100FC0000104E0D39407400374FFF0900104E004AF
:070FD000F09022D993F5BC5B
:030FD700055C2294
:02226F00155CFC
:09227100A85CA61FE4F51FE6FFBE
:03227A00055C22DE
:02227D00155CEE
:09227F00A85CA61EE4F51EE6FFB2
:03228800055C22D0
:101FA2008F9D75BC88439720D2AD9000DB74FFF003
:101FB200A3740EF0A3742EF0A374FFF0A37422F0A6
:101FC200A3746FF0A374FFF0A37422F0A3747DF0E6
:011FD20022EC
:07230E007B017A0179062230
:101DDF00C3EF64809480403BD3EF6480948550338D
:101DEF00EFFD3395E0FC90011275F003ED120B6BD4
:101DFF00EC75F003A42583F583E0FE90011275F0D6
:101E0F0003ED120B6BEC75F003A42583F583E4F05F
:051E1F00AF06227F0365
:011E2400229B
:04205B00155C155C9F
:10205F001222EBA85CA60608A607A85CE6FE08E617
:0F206F00FF4E600BEF24FFFFEE34FFFE1222F452
:05207E00055C055C2279
:1020F40053B1EF43B210122336E4F5D975DA49D25D
:10210400DE9000D574FFF0A37420F0A3745BF0227A
:081AF0008E1A8F1B8C1C8D1D4A
:101AF8001222EBEF4E7066AF1DAE1C1222F4C3E546
:101B08001B940AE51A9400404BE47B18FAF9F89004
:101B18002153120B4F120A83C006C007AE1AAF1B1F
:101B2800AB07AA06E4F9F8D007D006120A83AB0778
:101B3800AA06AFF9EFFEADE97C00E42DFFEC3ECF3D
:101B48002BCF3AAD07FCAF03AE02122230D2D843F6
:0F1B5800DA01800612233653DAFE7F02227F0362
:011B6700225B
:0C22C2001222EBEF4E7002FF227F01227F
:10152A00E4F580900142E0FFB40800505F90153E58
:10153A00F828287302155602155C0215620215680E
:10154A0002156E02157802158202158CC2A3C2A278
:10155A008016C2A3C2A2801AC2A3C2A2801EC2A3BC
:10156A00C2A28022C2A3D2A2C2A1C2A08020C2A3C8
:10157A00D2A2C2A1D2A08016C2A3D2A2D2A1C2A0D4
:10158A00800CC2A3D2A2D2A1D2A08002D2A3C3EF5E
:10159A00648094885029900142E0FF3395E0FE74FC
:1015AA00392FF58274013EF583E0FF3395E0FE742E
:1015BA00572FF58274213EF583E493F580801E90BF
:1015CA000142E0FFB408133395E0FE74392FF58227
:1015DA0074013EF583E0F5808003E4F580900138DC
:1015EA00E0FF900142E004FEF0D3EF6480F8EE647D
:1015FA0080984014E0D36480948850047408F022E0
:09160A00900137E0900142F0224A
:1021E300E4F5937594FF5395F043960F9000C074F4
:0B21F300FFF0A37415F0A3742AF02283
:0922E200900137EFF0A3EDF022AA
:10211400900139EFF0A3EDF0A3EBF0A3E50FF0A3EA
:10212400E510F0A3E511F0A3E512F0A3E513F02206
:06232200900141EFF022E2
:10126E0001590041015B004101580541015983417B
:03127E00015A838F
:101E2500209206900159E014F0900158E014F070EA
:101E3500347405F0A3E0FFC39480500EA3E09480B2
:101E45004018A37401F0F559801090015AE0C3942D
:101E5500805007A37402F075590190015AEFF09074
:051E650001597483F037
:011E6A002255
:02228B00155CE0
:09228D00A85CA659E4F559E6FF2E
:03229600055C22C2
:102171009000CC74FFF0A37422F0A3748BF0900054
:0D218100C974FFF0A3741EF0A37425F022B2
:0723060090015BE0FFE4F031
:01230D0022AD
:10128100015A0049014F94940094940094940041B0
:03129100014E1EED
:02110A00155C72
:10110C0020B20690014FE014F020B306900152E09B
:10111C0014F0209706900155E014F090014EE01465
:10112C00F0600302122A741EF0A85CE4F6A85CE6D8
:10113C00FFC364809483400302122AEF3395E0FED0
:10114C0090014F75F003EF120B6BEE75F003A425B5
:10115C0083F583E0C39480503990015075F003EF10
:10116C00120B6BEE75F003A42583F583E0D394800A
:10117C00405AE6FF3395E0FE90015175F003EF12F3
:10118C000B6BEE75F003A42583F5837401F0F55A0F
:10119C00803AA85CE6FF3395E0FE90015075F003B1
:1011AC00EF120B6BEE75F003A42583F583E0C3946B
:1011BC0080501990015175F003EF120B6BEE75F026
:1011CC0003A42583F5837402F0755A01A85CE6FF2D
:1011DC00FD3395E0FC90014F75F003ED120B6BECB9
:1011EC0075F003A42583F583E0FE90015075F003A0
:1011FC00ED120B6BEC75F003A42583F583EEF0EF89
:10120C003395E0FE90014F75F003EF120B6BEE750A
:0E121C00F003A42583F5837494F006021139C3
:03122A00055C223E
:02229900155CD2
:09229B00A85CA65AE4F55AE6FF1E
:0322A400055C22B4
:10218E009000C674FFF0A37422F0A37499F090002F
:0D219E00C374FFF0A37411F0A3740AF022C3
:101EAF00EF600764016003BF0233EFFD3395E0FC81
:101EBF0090015175F003ED120B6BEC75F003A42537
:101ECF0083F583E0FE90015175F003ED120B6BEC7F
:0F1EDF0075F003A42583F583E4F0AF06227F039B
:011EEE0022D1
:101294004100960A4100BF0A4101030A04430000C9
:1012A40000000149004600FD0000FFFF8FFFC10D53
:1012B400C105C108C101C10E6024009BFF2339FF91
:1012C4002339FF2339FF2339FF2339FF2339FF2330
:1012D40039FF2339FF2339FF2339FF2339FF23390A
:1012E400603600C0FF2339FF2339FF2333FF23393E
:1012F400FF2333FF2339FF2333FF2339FF2339FF30
:101304002339FF2333FF2333FF2333FF2333FF2307
:0A13140039FF2339FF2339FF233985
:012339002281
:032333007F002206
:101D9800438E805389F07BE07A287901780090217E
:101DA80053120B4F121E6BEFF404F58A7BE07A286E
:101DB80079017800902153120B4F121E6BC3E49FD8
:101DC800FFE49EFE74019DFDE49CFC7808120B283C
:071DD8008F8CD28CD2A922EE
:03000B00021CFCD8
:041CFC00C0E0C0D0B4
:101D0000D53D0A753D4C300D020549D20DA2037236
:101D1000045036153FE53F703085413FD207300A09
:101D200017E54260071542438F01801D538FFEC2A5
:101D3000B5D54B15C20A80110540E540D394064045
:091D400008C203E5486002D20666
:051D4900D0D0D0E03213
:101CA900300E47C20E902153120B4F7810120B2899
:101CB9008E1A8F1B900099E0FEA3E0FFE4FCFD7BE8
:101CC90019FAF9F81209F8C006C007AE1AAF1BAB2A
:101CD90007AA06E4F9F8D007D006121E6B7803129A
:101CE9000B289000FBEEF0A3EFF09000FBE0FEA3C1
:021CF900E0FF0A
:011CFB0022C6
:0922EB009000FDE0FEA3E0FF22DB
:0922F4009000FDEEF0A3EFF022D2
:10223000900101EEF0A3EFF09000FFECF0A3EDF0C1
:01224000227B
:03233600C2B4220C
:03003B000216FAB0
:1016FA00C0E0C083C082C0D075D000C004C005C09D
:03170A0006C0070F
:10170D0030DF04C2DF807D30DA04C2DA807630D972
:10171D003DC2D9AFFBEFFEADEB7C00E42DFFEC3EFF
:10172D0020000E900097F0A3EFF075DB11D2008032
:10173D0053FE900097E0FCA3E0FDC3EF9DFFEE9CF0
:10174D00A3F0A3EFF075DB00C200D20E803630D8C7
:10175D0033C2D89000FDE07002A3E06022B2B490D5
:10176D0000FFE0FEA3E0F5EAEEF5FAA3E0FEA3E04C
:10177D00FF900100E02FF09000FFE03EF08005C2E9
:04178D00B453DAFE79
:10179100D007D006D005D004D0D0D082D083D0E0FD
:0117A1003215
:06232800121D98D2AF2245
:1019E8003004047F0180027F00200A047E01800207
:1019F8007E00EE5F6074E54AC3953E50683002365B
:101A0800754201E54A131313541FAB4CAA4DA94E56
:101A1800F5827583001208F6FFE54A540704FEEFC5
:101A2800A806088002C333D8FC30D705754B03805D
:101A38002F754B01802AAB4CAA4DA94E75F002E5D3
:101A48004AA4F58285F0831208F6F542E54A75F056
:101A580002A429F9EA35F0FA9000011208F6F54BCC
:0A1A6800054AD20A22C204438F107F
:011A72002251
:10143D00900096E014F0701F740AF0D2059000BF72
:10144D00E014F07012740AF0D208900103E014F069
:10145D007005740AF0D2019000C0A3E0FAA3E0F980
:10146D00120B779000C3A3E0FAA3E0F9120B77906B
:10147D0000CFA3E0FAA3E0F9120B779000DBA3E015
:10148D00FAA3E0F9120B779000EAA3E0FAA3E0F9D2
:10149D00120B779000F3A3E0FAA3E0F9120B77900B
:1014AD0000E1A3E0FAA3E0F9120B77EF600C9000D6
:1014BD00B3A3E0FAA3E0F9120B779000E4A3E0FAEE
:1014CD00A3E0F9120B77EF600E9000B6A3E0FAA33C
:1014DD00E0F9120B77D20BE547D394004016D547B0
:1014ED003030090C9000B9A3E0FAA3E0F9120B77A4
:1014FD00D20C801D9000E7A3E0FAA3E0F9120B7760
:10150D00EF600E9000B9A3E0FAA3E0F9120B77D2C9
:0D151D000C90009BA3E0FAA3E0F9020B770D
:101839009000D5A3E0FAA3E0F9120B779000D8A3A2
:10184900E0FAA3E0F9120B779000C9A3E0FAA3E04C
:10185900F9120B7790009EA3E0FAA3E0F9120B7737
:101869009000C6A3E0FAA3E0F9120B77EF600C90A1
:1018790000A7A3E0FAA3E0F9120B779000CCA3E04C
:10188900FAA3E0F9120B77EF600C9000ADA3E0FA30
:10189900A3E0F9120B779000DEA3E0FAA3E0F912B6
:1018A9000B77EF600C9000B0A3E0FAA3E0F9120BFC
:1018B9007730060EC2069000BCA3E0FAA3E0F91245
:0318C9000B772278
:101EEF009000A1A3E0FAA3E0F9120B779000D2A320
:101EFF00E0FAA3E0F9120B77EF600C9000AAA3E0D1
:101F0F00FAA3E0F9120B779000EDA3E0FAA3E0F942
:0F1F1F00120B779000F0A3E0FAA3E0F9020B7722
:10203000AF46AE45AD44AC439000F6120B5F900046
:10204000FAE549F0E4F546F545F544F543F54990E0
:0B20500000A4A3E0FAA3E0F9020B7764
:101F2E00300705C2071219E8300D05C20D12143D17
:101F3E00300505C205121839300805C208121EEF09
:101F4E00300105C201122030E5462401F546E43584
:0E1F5E0045F545E43544F544E43543F54322AA
:101A73008B088A09890AEFB40C005070901A86F813
:101A8300282873021AAA021AAF021AB4021AB90258
:101A93001ABE021AC3021AC8021ACD021AD2021AB5
:101AA300D7021ADC021AE190009B803590009E80D9
:101AB300309000A1802B9000A480269000A7802165
:101AC3009000AD801C9000AA80179000B080129007
:101AD30000B3800D9000B680089000B98003900099
:0D1AE300BCE508F0A3E509F0A3E50AF02238
:072315007B017A0079F6223A
:07131E00015B0041015C00CE
:0D22B50020A409755B0190015C7401F0220A
:0222A700155CC4
:0922A900A85CA65BE4F55BE6FF0E
:0322B200055C22A6
:1021AB009000D274FFF0A37422F0A374A7F09000F8
:0D21BB00CF74FFF0A37422F0A374B5F022DE
:02225100155C1A
:0A22530090015CE0A85CF6FFE4F0E7
:03225D00055C22FB
:1018CC008B57AA077C007E037FE812095790014AC8
:1018DC00EEF0A3EFF0E558FD7C007E037FE81209E3
:1018EC0057A3EEF0A3EFF0AF02AB07E4FAF9F890D0
:1018FC00014AE0FEA3E0FFE4FCFD1209F8EF2432FC
:10190C00FFE43EFEE43DFDE43CFCE47B64FAF9F8C4
:10191C00121E6B900144EEF0A3EFF0AF57AB07E44F
:10192C00FAF9F890014CE0FEA3E0FFE4FCFD12098B
:10193C00F8EF2432FFE43EFEE43DFDE43CFCE47BA6
:10194C0064FAF9F8121E6B900146EEF0A3EFF02248
:101C5000E4F50BF50AF509F508F50CD291AF0BAEDA
:101C60000AAD09AC087801120B3C8F0B8E0A8D0966
:101C70008C0800C291309015E4FAF9F8EF2401F5D0
:101C80000BEA3EF50AE93DF509E83CF508050CE5E7
:101C90000CB418C700D2910000C291AF0BAE0AADD0
:081CA00009AC087808120B28BA
:011CA8002219
:0922FD00900148E0FEA3E0FF227D
:0F224100900148E0FEA3E0FFE4900148F0A3F015
:01225000226B
:10161300900143E0700F30900122121C509001485A
:10162300EEF0A3EFF0900143E0FF64017062055018
:10163300E5507002054FFDD390014BE09D90014AA8
:10164300E0954F5005E4F54FF550D3900145E095F3
:1016530050900144E0954F4004D2908002C290051F
:1016630052E55270020551FDD390014DE09D90016A
:101673004CE095515005E4F551F552D3900147E004
:101683009552900146E095514004D2918002C29157
:10169300EF6402703E2090047F0180027F00E553D7
:1016A30060047E0180027E00EE5F60213091109025
:1016B3000149E004F07016900148E004F0800E90B8
:1016C3000149E024FFF0900148E034FFF0A290E4E8
:1016D30033F553900143E0B4031CE5547002D291F7
:1016E300E554B40105C29175DB210554E554C39457
:0616F300C84003E4F554B9
:0116F90022CE
:101F6C00900143EFF07004C2918002D29190014332
:101F7C00E0B40310E5A254CFF5A2E4F5D975DB016A
:101F8C00D2DE8003E4F5DB9000F374FFF0A374164B
:061F9C00F0A37413F02213
:101325005501220000000000000000000000000040
:081335000000010000000000AF
:03002300020FDAEF
:100FDA00C0E0C0F0C083C082C0D075D000C000C0DD
:100FEA0001C002C003C004C005C006C00730993B57
:100FFA00C299900127E0FEA3E0FFC3900126E09F7B
:10100A00900125E09E501F900122E0FBA3E0FAA385
:10101A00E0F9A3E475F0011209E285F082F5831282
:10102A0008F6F5998005900129E4F020980302104A
:10103A00EFC298300B09C20B90012FE4F0A3F09095
:10104A00012DE0FEA3E0FFA3E0FCA3E0FDC39FECBB
:10105A009E507790012AE0FBA3E0FAA3E0F98D8283
:10106A008C83E599120923900135E0FEA3E0FFC3C2
:10107A00ED9FEC9E504690012DE0FCA3E0FDEF9D14
:10108A00EE9C5038900132E0FBA3E0FAA3E0F9901D
:10109A00012FE0FEA3E0FFF5828E831208F6FD9091
:1010AA00012AE0FBA3E0FAA3E0F98F828E831208FB
:1010BA00F66D600890012F74FFF0A3F0900130E004
:1010CA0004F0700690012FE004F090012DE0FEA3D9
:1010DA00E0FFC3900130E09F90012FE09E40069010
:1010EA0001317401F0D007D006D005D004D003D066
:1010FA0002D001D000D0D0D082D083D0F0D0E0325C
:02226000155C0B
:0A226200900131E0A85CF6FFE4F003
:03226C00055C22EC
:101B68008F0B8E0A8D098C08759850438E40538EC2
:101B7800FE53890FE47B04FAF9F8902153120B4FB6
:101B8800120A83AB0BAA0AA909A808120A83EFF460
:101B980004F58BE47B04FAF9F8902153120B4F12E9
:101BA8000A83AB0BAA0AA909A808120A83C3E49FEF
:101BB800FFE49EFE74019DFDE49CFC7808120B1561
:101BC8008F8DC2ABD28ED2AC9000E474FFF0A374B8
:071BD80022F0A37460F0226B
:101FD30090012AEBF0A3EAF0A3E9F0A3ECF0A3ED60
:101FE300F0900135E510F0A3E511F0900132E50D15
:101FF300F0A3E50EF0A3E50FF0D20BE4900131F06E
:0120030022BA
:10208300900129E0701F900122EBF0A3EAF0A3E98D
:10209300F0E4A3F0A3F0A3ECF0A3EDF0A37401F03C
:0820A300D2997F02227F032283
:0B22CE00900129E07002FF227F012236
:0300000002195C86
:0C195C00787FE4F6D8FD75815C0219A3C9
:10080000E709F608DFFA8046E709F208DFFA803EDA
:1008100088828C83E709F0A3DFFA8032E309F608C7
:10082000DFFA8078E309F208DFFA807088828C832F
:10083000E309F0A3DFFA806489828A83E0A3F608E3
:10084000DFFA805889828A83E0A3F208DFFA804CBD
:1008500080D280FA80C680D4806980F28033801094
:1008600080A680EA809A80A880DA80E280CA8033FD
:1008700089828A83ECFAE493A3C8C582C8CCC58375
:10088000CCF0A3C8C582C8CCC583CCDFE9DEE78045
:100890000D89828A83E493A3F608DFF9ECFAA9F0C4
:1008A000EDFB2289828A83ECFAE0A3C8C582C8CC1A
:1008B000C583CCF0A3C8C582C8CCC583CCDFEADE33
:1008C000E880DB89828A83E493A3F208DFF980CC95
:1008D00088F0EF60010E4E60C388F0ED2402B4048E
:1008E0000050B9F582EB2402B4040050AF23234535
:0608F00082239008507302
:1008F600BB010CE58229F582E5833AF583E02250B7
:1009060006E92582F8E622BBFE06E92582F8E22200
:0D091600E58229F582E5833AF583E493221A
:10092300F8BB010DE58229F582E5833AF583E8F00A
:10093300225006E92582C8F622BBFE05E92582C8B6
:02094300F2229E
:10094500EF8DF0A4A8F0CF8CF0A428CE8DF0A42EC6
:02095500FE2280
:10095700BC000BBE0029EF8DF084FFADF022E4CC84
:10096700F875F008EF2FFFEE33FEEC33FCEE9DEC4D
:10097700984005FCEE9DFE0FD5F0E9E4CEFD22ED93
:10098700F8F5F0EE8420D21CFEADF075F008EF2FDD
:10099700FFED33FD4007985006D5F0F222C398FDCE
:0509A7000FD5F0EA226B
:1009AC00C2D5EC30E709B2D5E4C39DFDE49CFCEE66
:1009BC0030E715B2D5E4C39FFFE49EFE120957C37E
:1009CC00E49DFDE49CFC800312095730D507C3E479
:0609DC009FFFE49EFE22D5
:1009E200A3F8E0C5F025F0F0E582158270021583C8
:0609F200E0C838F0E82225
:1009F800E88FF0A4CC8BF0A42CFCE98EF0A42CFC9E
:100A08008AF0EDA42CFCEA8EF0A4CDA8F08BF0A41B
:100A18002DCC3825F0FDE98FF0A42CCD35F0FCEB7A
:100A28008EF0A4FEA9F0EB8FF0A4CFC5F02ECD393F
:0F0A3800FEE43CFCEAA42DCE35F0FDE43CFC22AC
:100A470075F008758200EF2FFFEE33FECD33CDCC66
:100A570033CCC58233C5829BED9AEC99E5829840E9
:100A67000CF582EE9BFEED9AFDEC99FC0FD5F0D6C6
:100A7700E4CEFBE4CDFAE4CCF9A88222B800C1B9F0
:100A87000059BA002DEC8BF084CFCECDFCE5F0CB2E
:100A9700F97818EF2FFFEE33FEED33FDEC33FCEB67
:100AA70033FB10D703994004EB99FB0FD8E5E4F922
:100AB700FA227818EF2FFFEE33FEED33FDEC33FC0F
:100AC700C933C910D7059BE99A4007EC9BFCE99A03
:100AD700F90FD8E0E4C9FAE4CCFB2275F010EF2F48
:100AE700FFEE33FEED33FDCC33CCC833C810D70748
:100AF7009BEC9AE899400AED9BFDEC9AFCE899F883
:0E0B07000FD5F0DAE4CDFBE4CCFAE4C8F92215
:101E6B00C2D5E830E70FB2D5E4C39BFBE49AFAE4A2
:101E7B0099F9E498F8EC30E717B2D5121EA1120AC3
:101E8B0083E4C39BFBE49AFAE499F9E498F88003A2
:101E9B00120A8330D50DE4C39FFFE49EFEE49DFD43
:041EAB00E49CFC2295
:100B1500E8600FECC313FCED13FDEE13FEEF13FFBE
:030B2500D8F122E2
:100B2800E86010ECA2E713FCED13FDEE13FEEF13E3
:040B3800FFD8F022D0
:100B3C00E8600FEFC333FFEE33FEED33FDEC33FC17
:030B4C00D8F122BB
:100B4F00E493FC740193FD740293FE740393FF22EC
:0C0B5F00ECF0A3EDF0A3EEF0A3EFF02209
:0C0B6B00A42582F582E5F03583F5832295
:060B77008A838982E47309
:101968000217A2E493A3F8E493A34003F68001F2DC
:1019780008DFF48029E493A3F85407240CC8C33380
:10198800C4540F4420C8834004F456800146F6DF4F
:10199800E4800B010204081020408090122DE47EA0
:1019A800019360BCA3FF543F30E509541FFEE49344
:1019B800A360010ECF54C025E060A840B8E493A30B
:1019C800FAE493A3F8E493A3C8C582C8CAC583CA36
:1019D800F0A3C8C582C8CAC583CADFE9DEE780BEEE
:01133D0000AF
:00000001FF
