:10203B0000A8C0003F065B4F666D7D077F6F0008F1
:0E204B0040014148BF86DBCFE6EDFD87FFEF89
:10120A000118AA01130001140002150000011700B9
:0E121A00021C0000011200011900021A00005F
:1020B000750DAA8F0E8D0F8B10EF2D2BF5117B0058
:0B20C0007A00790D7D057C00021F9165
:101AAB00C3EF9464EE940050047E007F64D3EF94F4
:101ABB00B6EE940340047E037FB6C3E49FFF74022B
:101ACB009EFE7C007D0A1209457D0E1209ACEF24A7
:101ADB00FAFFE43EAB07FAC3648094805003E4FA48
:101AEB00FBD3EB9458EA6480948240047A027B58CF
:101AFB007C007D0AAF03AE021209AC8F34AE02AF8D
:101B0B00037C007D0A1209ACAB05AD347F020220C9
:011B1B00B019
:10210000AB07AA06EB7802CEC313CE13D8F9FDEBCA
:082110005403FB7F030220B021
:101B1C00AF09850A22850B23E5222F2523650C703E
:101B2C005CEF24EE601414602F14604B2403704D92
:0A1B3C00852213852314E4F5172217
:101B4600E522F524E523F525D3E5259400E524943F
:0E1B56000040307D0A7C00AF25AE240219BC91
:101B64007D07E4FF1221CAAF22AD2375290A752A25
:101B74000A752B0A752C0A752D0A7B0A021FFC852F
:051B8400221975120199
:011B89002239
:1020E600122139BF0113E51D451C700DF51C751D28
:0A20F6003CFB7D017F011220B022A7
:10201C001221EE8F22E522B40106E4FB7D0180093A
:0E202C00E522B40209E4FB7D027F061220B01B
:01203A002283
:101C88007F03121D19BF01067B017D0580367F0584
:101C9800121D19BF01067B017D0180287F02121DDC
:101CA80019BF01067B017D02801A7F04121D19BF2E
:101CB80001067B017D03800C7F01121D19BF0109FC
:0A1CC8007B017D047F041220B0228E
:101FB900E4FF121DE9BF01097B017D107F04122096
:101FC900B07F01121DE9BF01097B017D117F041258
:031FD90020B02213
:100B7D000516E51670020515AE15FF7C007D641295
:100B8D0009578C318D32D3E51D9400E51C9400403E
:100B9D0008E51D151D7002151CE512D3940040606B
:100BAD00E5197028E512B401107D087C007F847E64
:100BBD00031219BC75120F8047E512B4020A7D0AA3
:100BCD007C007F4C7E04802C15128034E519640165
:100BDD00702BE512B401107D0A7C007F267E051274
:100BED0019BC75120C8019E512B4020D7D0C7C0038
:100BFD007F207E061219BC800415128003E4F512C5
:100C0D00AE15AF167C007D05120957ED4C60030241
:020C1D000D5177
:100C1F00F533E513B408004003020D49900C32F888
:100C2F00282873020C4A020C89020CA0020CC30282
:100C3F000CEA020D15020D1A020D44E5172401FFEF
:100C4F00E433FE7C007D0E1209578D17E517C39410
:100C5F00085012AF17A8077401088002C333D8FCDD
:100C6F00F533020D4CC3740E9517FFF8740108800D
:100C7F0002C333D8FCF533020D4CE517045403F5CA
:100C8F0017C3940250047FFF80027F008F33020D41
:100C9F004CE5172401FFE433FE7C007D1412095745
:100CAF008D17E517C3940A50047F0380027F018FCD
:100CBF0033020D4CE517045407F517C37408951745
:100CCF00FFF87407088002C313D8FCFFAE17A806FD
:100CDF007407088002C333D8FC8055E51775F003FD
:100CEF00A4045407F517C374079517FFF874010888
:100CFF008002C333D8FCFFAE17A806740108800228
:100D0F00C333D8FC802A7533E08032E517045407CB
:100D1F00F517C374079517FFF87401088002C333E2
:100D2F00D8FCFFAE17A8067401088002C333D8FCA5
:100D3F004FF53380088514338003E4F533AF331256
:020D4F00220A76
:100D5100E532453170171221F678227C007D007E44
:100D6100007F0A1208D0AF27AE26021AABE5326423
:100D710019453170171221F678227C007D007E0022
:100D81007F0A1208D0AF29AE28022100E532643271
:100D9100453170291221FD782C7C007D007E007F79
:100DA100051208D0E47B0AFAF9F8AF2FAE2EAD2D6B
:100DB100AC2C120A83AD07AB307F078049E5326462
:100DC1004B45317012051BE51B7002051AE51AFD32
:100DD100E51BFB7F08802FAE15AF167C007D14123A
:100DE1000957ED640A4C7021121BE3D3EF9400EE16
:100DF100648094804013EF94FFEE648094805009E6
:090E0100AD07E4FB7F051220B0EF
:010E0A0022C5
:101799001220761220931220591220CB121FDC7FBF
:1017A90098121EDC7F03121EA67F007EC27D017C7B
:1017B90000121A34752700752800752918752A0032
:1017C900752B017B007A0079087D057C00121F0DBD
:1017D9007BFF7A1B791C7F0912193F7BFF7A2079DD
:1017E900E67F0612193F7BFF7A20791C7F051219C3
:1017F9003F7BFF7A1C79887F0712193F7BFF7A1F8D
:1018090079B97F0412193F7BFF7A0B797D7F011229
:0F181900193F7FAA12220A122210121E6880FBAA
:0921C1008B88898C88898F88893C
:1012280052007A8686008686008686008686008634
:09123800860086860041006F0962
:03002B00022204AA
:0622040053BCEFD20F32C3
:020E0B00155779
:100E0D00200F03020FB4C20F90006EE0B409004032
:100E1D0003020F96900E28F8282873020E6F020E0B
:100E2D0043020E55020E81020E43020E55020E981C
:100E3D00020E43020E55AFBDEFFEADBE7C00E42D9C
:100E4D00FFEC3E900070803CAFBDEFFEADBE7C0070
:100E5D00E42DFFEC3E900072F0A3EFF0751E010241
:100E6D000F9CAFBDEFFEADBE7C00E42DFFEC3E90C0
:100E7D0000748010AFBDEFFEADBE7C00E42DFFEC25
:100E8D003E900076F0A3EFF0020F9CAFBDEFFEADEC
:100E9D00BE7C00E42DFFEC3E900078F0A3EFF090C7
:100EAD000078E0FEA3E07807CEC313CE13D8F9A8DF
:100EBD0057F6C394065013A857E675F003A4247A89
:100ECD00F582E43400F583E014F090006FE014F047
:100EDD006003020F9C7409F0A857E4F6A857E6FFCB
:100EED00C394064003020F9CEF75F003A4247AF51A
:100EFD0082E43400F583E0C39480502AE6FF75F058
:100F0D0003A4247BF582E43400F583E0D394804080
:100F1D0040EF75F003A4247CF582E43400F583746E
:100F2D0001F0F51F802BA857E6FF75F003A4247B75
:100F3D00F582E43400F583E0C394805014EF75F02E
:100F4D0003A4247CF582E43400F5837402F0751F4C
:100F5D0001A857E6FF75F003A4247AF582E4340066
:100F6D00F583E0FEEF75F003A4247BF582E43400F5
:100F7D00F583EEF0E675F003A4247AF582E43400EF
:100F8D00F5837486F006020EE990006E74FFF09002
:100F9D00006EE0D39407400374FFF090006EE00400
:070FAD00F09021C193F5BC97
:030FB400055722BC
:0221570015571A
:09215900A857A61FE4F51FE6FFDC
:03216200055722FC
:0221650015570C
:09216700A857A61EE4F51EE6FFD0
:03217000055722EE
:101EDC008F9D75BC88439720D2AD90004574FFF060
:101EEC00A3740EF0A3740BF0A374FFF0A37421F091
:101EFC00A37457F0A374FFF0A37421F0A37465F0DE
:011F0C0022B2
:0721F6007B017A00797022E1
:101D1900C3EF64809480403BD3EF64809485503353
:101D2900EFFD3395E0FC90007C75F003ED120B6B31
:101D3900EC75F003A42583F583E0FE90007C75F033
:101D490003ED120B6BEC75F003A42583F583E4F026
:051D5900AF06227F032C
:011D5E002262
:041F6900155715579C
:101F6D001221D3A857A60608A607A857E6FE08E62D
:0F1F7D00FF4E600BEF24FFFFEE34FFFE1221DC5E
:051F8C00055705572276
:101FDC0053B1EF43B210122219E4F5D975DA49D294
:101FEC00DE90003F74FFF0A3741FF0A37469F0221D
:0819BC008E348F358C368D3717
:1019C4001221D3EF4E7066AF37AE361221DCC3E579
:1019D40035940AE5349400404BE47B18FAF9F89006
:1019E400203B120B4F120A83C006C007AE34AF353A
:1019F400AB07AA06E4F9F8D007D006120A83AB07AE
:101A0400AA06AFF9EFFEADE97C00E42DFFEC3ECF72
:101A14002BCF3AAD07FCAF03AE02122118D2D84344
:0F1A2400DA01800612221953DAFE7F02227F03B5
:011A33002290
:0C21AA001221D3EF4E7002FF227F0122B1
:1013FE00E4F5809000ACE0FFB40800505F9014124A
:10140E00F828287302142A02143002143602143CEF
:10141E0002144202144C021456021460C2A3C2A259
:10142E008016C2A3C2A2801AC2A3C2A2801EC2A3E9
:10143E00C2A28022C2A3D2A2C2A1C2A08020C2A3F5
:10144E00D2A2C2A1D2A08016C2A3D2A2D2A1C2A001
:10145E00800CC2A3D2A2D2A1D2A08002D2A3C3EF8B
:10146E006480948850299000ACE0FF3395E0FE74C0
:10147E00A32FF58274003EF583E0FF3395E0FE74F2
:10148E003F2FF58274203EF583E493F580801E9005
:10149E0000ACE0FFB408133395E0FE74A32FF58281
:1014AE0074003EF583E0F5808003E4F5809000A2A1
:1014BE00E0FF9000ACE004FEF0D3EF6480F8EE6441
:1014CE0080984014E0D36480948850047408F0220D
:0914DE009000A1E09000ACF022A6
:1020CB00E4F5937594FF5395F043960F90002A74A3
:0B20DB00FFF0A37413F0A374FEF022CA
:0921CA009000A1EFF0A3EDF0225A
:101FFC009000A3EFF0A3EDF0A3EBF0A3E529F0A381
:10200C00E52AF0A3E52BF0A3E52CF0A3E52DF022B7
:06220A009000ABEFF02292
:101241000154004100C5004100C2054100C3834172
:0312510000C48353
:101D5F002092069000C3E014F09000C2E014F070DF
:101D6F00347405F0A3E0FFC39480500EA3E0948079
:101D7F004018A37401F0F55480109000C4E0C39490
:101D8F00805007A37402F07554019000C4EFF090D7
:051D9F0000C37483F095
:011DA400221C
:022173001557FE
:09217500A857A654E4F554E6FF56
:03217E00055722E0
:1020590090003674FFF0A37421F0A37473F090001C
:0D2069003374FFF0A3741DF0A3745FF02228
:0721EE009000C5E0FFE4F0E2
:0121F50022C7
:101254000155004900B99494009494009494004179
:0312640000B81EB1
:0210E70015579B
:1010E90020B2069000B9E014F020B3069000BCE0ED
:1010F90014F02097069000BFE014F09000B8E014B7
:10110900F06003021207741EF0A857E4F6A857E628
:10111900FFC3648094834003021207EF3395E0FE16
:101129009000B975F003EF120B6BEE75F003A4256F
:1011390083F583E0C3948050399000BA75F003EFCA
:10114900120B6BEE75F003A42583F583E0D394802D
:10115900405AE6FF3395E0FE9000BB75F003EF12AD
:101169000B6BEE75F003A42583F5837401F0F55537
:10117900803AA857E6FF3395E0FE9000BA75F00370
:10118900EF120B6BEE75F003A42583F583E0C3948E
:101199008050199000BB75F003EF120B6BEE75F0E0
:1011A90003A42583F5837402F0755501A857E6FF5A
:1011B900FD3395E0FC9000B975F003ED120B6BEC73
:1011C90075F003A42583F583E0FE9000BA75F0035A
:1011D900ED120B6BEC75F003A42583F583EEF0EFAC
:1011E9003395E0FE9000B975F003EF120B6BEE75C5
:0E11F900F003A42583F5837494F0060211160A
:0312070005572266
:022181001557F0
:09218300A857A655E4F555E6FF46
:03218C00055722D2
:1020760090003074FFF0A37421F0A37481F09000F7
:0D2086002D74FFF0A37410F0A374E7F02296
:101DE900EF600764016003BF0233EFFD3395E0FC48
:101DF9009000BB75F003ED120B6BEC75F003A42595
:101E090083F583E0FE9000BB75F003ED120B6BECDC
:0F1E190075F003A42583F583E4F0AF06227F0361
:011E28002297
:101267004100000A4100290A41006D0A043E0000BE
:1012770000000144004600670000FFFF8FFFC10D1B
:10128700C105C108C101C10E60240005FF221CFF72
:10129700221CFF221CFF221CFF221CFF221CFF22F4
:1012A7001CFF221CFF221CFF221CFF221CFF221CEA
:1012B7006036002AFF221CFF221CFF2216FF221C79
:1012C700FF2216FF221CFF2216FF221CFF221CFFF3
:1012D700221CFF2216FF2216FF2216FF2216FF22CC
:0A12E7001CFF221CFF221CFF221C2A
:01221C00229F
:032216007F002224
:101CD200438E805389F07BE07A2879017800902046
:101CE2003B120B4F121DA5EFF404F58A7BE07A2814
:101CF2007901780090203B120B4F121DA5C3E49F7F
:101D0200FFE49EFE74019DFDE49CFC7808120B2802
:071D12008F8CD28CD2A922B4
:03000B00021C369E
:041C3600C0E0C0D07A
:101C3A00D5380A75384C300D020544D20DA203720C
:101C4A00045036153AE53A7030853C3AD207300AE4
:101C5A0017E53D6007153D438F01801D538FFEC276
:101C6A00B5D54615C20A8011053BE53BD39406401B
:091C7A0008C203E5436002D20632
:051C8300D0D0D0E032DA
:101BE300300E47C20E90203B120B4F7810120B2879
:101BF3008E348F35900003E0FEA3E0FFE4FCFD7B11
:101C030019FAF9F81209F8C006C007AE34AF35ABBC
:101C130007AA06E4F9F8D007D006121DA578031227
:101C23000B28900065EEF0A3EFF0900065E0FEA3B3
:021C3300E0FFD0
:011C3500228C
:0921D300900067E0FEA3E0FF228A
:0921DC00900067EEF0A3EFF02281
:1021180090006BEEF0A3EFF0900069ECF0A3EDF007
:012128002294
:03221900C2B4222A
:03003B000215CEDD
:1015CE00C0E0C083C082C0D075D000C004C005C0CA
:0315DE0006C0073D
:1015E10030DF04C2DF807D30DA04C2DA807630D9A0
:1015F1003DC2D9AFFBEFFEADEB7C00E42DFFEC3E2D
:1016010020000E900001F0A3EFF075DB11D20080F5
:1016110053FE900001E0FCA3E0FDC3EF9DFFEE9CB3
:10162100A3F0A3EFF075DB00C200D20E803630D8F4
:1016310033C2D8900067E07002A3E06022B2B49098
:101641000069E0FEA3E0F5EAEEF5FAA3E0FEA3E00F
:10165100FF90006AE02FF0900069E03EF08005C243
:04166100B453DAFEA6
:10166500D007D006D005D004D0D0D082D083D0E02A
:011675003242
:06221000121CD2D2AF2225
:1018B4003004047F0180027F00200A047E0180023C
:1018C4007E00EE5F6074E545C3953950683002369A
:1018D400753D01E545131313541FAB47AA48A949A5
:1018E400F5827583001208F6FFE545540704FEEF00
:1018F400A806088002C333D8FC30D7057546038098
:101904002F754601802AAB47AA48A94975F002E51C
:1019140045A4F58285F0831208F6F53DE54575F09A
:1019240002A429F9EA35F0FA9000011208F6F54606
:0A1934000545D20A22C204438F10B9
:01193E002286
:10131100900000E014F0701F740AF0D205900029CB
:10132100E014F07012740AF0D20890006DE014F02D
:101331007005740AF0D20190002AA3E0FAA3E0F943
:10134100120B7790002DA3E0FAA3E0F9120B77902E
:101351000039A3E0FAA3E0F9120B77900045A3E06E
:10136100FAA3E0F9120B77900054A3E0FAA3E0F995
:10137100120B7790005DA3E0FAA3E0F9120B7790CE
:10138100004BA3E0FAA3E0F9120B77EF600C900099
:101391001DA3E0FAA3E0F9120B7790004EA3E0FA47
:1013A100A3E0F9120B77EF600E900020A3E0FAA3FF
:1013B100E0F9120B77D20BE542D394004016D542E7
:1013C1003030090C900023A3E0FAA3E0F9120B7767
:1013D100D20C801D900051A3E0FAA3E0F9120B7723
:1013E100EF600E900023A3E0FAA3E0F9120B77D28D
:0D13F1000C900005A3E0FAA3E0F9020B77D1
:1016760090003FA3E0FAA3E0F9120B77900042A393
:10168600E0FAA3E0F9120B77900033A3E0FAA3E0A7
:10169600F9120B77900008A3E0FAA3E0F9120B7792
:1016A600900030A3E0FAA3E0F9120B77EF600C90FC
:1016B6000011A3E0FAA3E0F9120B77900036A3E03D
:1016C600FAA3E0F9120B77EF600C900017A3E0FA8B
:1016D600A3E0F9120B77900048A3E0FAA3E0F91211
:1016E6000B77EF600C90001AA3E0FAA3E0F9120B57
:1016F6007730060EC206900026A3E0FAA3E0F912A0
:031706000B77223C
:101E290090000BA3E0FAA3E0F9120B7790003CA312
:101E3900E0FAA3E0F9120B77EF600C900014A3E02D
:101E4900FAA3E0F9120B77900057A3E0FAA3E0F99F
:0F1E5900120B7790005AA3E0FAA3E0F9020B777F
:101F3E00AF41AE40AD3FAC3E900060120B5F9000E3
:101F4E0064E544F0E4F541F540F53FF53EF5449087
:0B1F5E00000EA3E0FAA3E0F9020B77ED
:101E6800300705C2071218B4300D05C20D12131140
:101E7800300505C205121676300805C208121E295B
:101E8800300105C201121F3EE5412401F541E43548
:0E1E980040F540E4353FF53FE4353EF53E228F
:10193F008B228A238924EFB40C005070901952F82F
:10194F0028287302197602197B0219800219850261
:10195F00198A02198F02199402199902199E0219F4
:10196F00A30219A80219AD900005803590000880D8
:10197F003090000B802B90000E802690001180215C
:10198F00900017801C900014801790001A801290FE
:10199F00001D800D90002080089000238003900090
:0D19AF0026E522F0A3E523F0A3E524F022B5
:0721FD007B017A00796022EA
:0712F1000156004100C60098
:0D219D0020A4097556019000C67401F022BF
:02218F001557E2
:09219100A857A656E4F556E6FF36
:03219A00055722C4
:1020930090003C74FFF0A37421F0A3748FF09000C0
:0D20A3003974FFF0A37421F0A3749DF022A6
:02213900155738
:0A213B009000C6E0A857F6FFE4F09C
:0321450005572219
:101709008B52AA077C007E037FE81209579000B428
:10171900EEF0A3EFF0E553FD7C007E037FE81209AC
:1017290057A3EEF0A3EFF0AF02AB07E4FAF9F89094
:1017390000B4E0FEA3E0FFE4FCFD1209F8EF243257
:10174900FFE43EFEE43DFDE43CFCE47B64FAF9F889
:10175900121DA59000AEEEF0A3EFF0AF52AB07E477
:10176900FAF9F89000B6E0FEA3E0FFE4FCFD1209E7
:10177900F8EF2432FFE43EFEE43DFDE43CFCE47B6B
:1017890064FAF9F8121DA59000B0EEF0A3EFF0226B
:101B8A00E4F525F524F523F522F526D291AF25AE05
:101B9A0024AD23AC227801120B3C8F258E248D2391
:101BAA008C2200C291309015E4FAF9F8EF2401F57D
:101BBA0025EA3EF524E93DF523E83CF5220526E52C
:101BCA0026B418C700D2910000C291AF25AE24AD49
:081BDA0023AC227808120B284D
:011BE20022E0
:0921E5009000B2E0FEA3E0FF222D
:0F2129009000B2E0FEA3E0FFE49000B2F0A3F05C
:012138002284
:1014E7009000ADE0700F30900122121B8A9000B27D
:1014F700EEF0A3EFF09000ADE0FF64017062054BE2
:10150700E54B7002054AFDD39000B5E09D9000B40D
:10151700E0954A5005E4F54AF54BD39000AFE095C6
:101527004B9000AEE0954A4004D2908002C29005ED
:101537004DE54D7002054CFDD39000B7E09D90003E
:10154700B6E0954C5005E4F54CF54DD39000B1E06D
:10155700954D9000B0E0954C4004D2918002C29125
:10156700EF6402703E2090047F0180027F00E54E09
:1015770060047E0180027E00EE5F60213091109052
:1015870000B3E004F070169000B2E004F0800E9013
:1015970000B3E024FFF09000B2E034FFF0A290E443
:1015A70033F54E9000ADE0B4031CE54F7002D291C5
:1015B700E54FB40105C29175DB21054FE54FC39493
:0615C700C84003E4F54FEB
:0115CD0022FB
:101EA6009000ADEFF07004C2918002D2919000AD27
:101EB600E0B40310E5A254CFF5A2E4F5D975DB0131
:101EC600D2DE8003E4F5DB90005D74FFF0A37414AA
:061ED600F0A374E7F02206
:1012F80055008C0000000000000000000000000005
:081308000000010000000000DC
:03002300020FB712
:100FB700C0E0C0F0C083C082C0D075D000C000C000
:100FC70001C002C003C004C005C006C00730993B7A
:100FD700C299900091E0FEA3E0FFC3900090E09FCC
:100FE70090008FE09E501F90008CE0FBA3E0FAA3D7
:100FF700E0F9A3E475F0011209E285F082F58312A6
:1010070008F6F5998005900093E4F0209803021004
:10101700CCC298300B09C20B900099E4F0A3F09072
:101027000097E0FEA3E0FFA3E0FCA3E0FDC39FEC75
:101037009E5077900094E0FBA3E0FAA3E0F98D823D
:101047008C83E59912092390009FE0FEA3E0FFC37C
:10105700ED9FEC9E5046900097E0FCA3E0FDEF9DCE
:10106700EE9C503890009CE0FBA3E0FAA3E0F990D7
:101077000099E0FEA3E0FFF5828E831208F6FD904B
:101087000094E0FBA3E0FAA3E0F98F828E831208B5
:10109700F66D600890009974FFF0A3F090009AE055
:1010A70004F07006900099E004F0900097E0FEA32A
:1010B700E0FFC390009AE09F900099E09E40069061
:1010C700009B7401F0D007D006D005D004D003D020
:1010D70002D001D000D0D0D082D083D0F0D0E0327F
:02214800155729
:0A214A0090009BE0A857F6FFE4F0B8
:032154000557220A
:101A34008F258E248D238C22759850438E40538E8F
:101A4400FE53890FE47B04FAF9F890203B120B4F04
:101A5400120A83AB25AA24A923A822120A83EFF42D
:101A640004F58BE47B04FAF9F890203B120B4F1237
:101A74000A83AB25AA24A923A822120A83C3E49FBC
:101A8400FFE49EFE74019DFDE49CFC7808120B1596
:101A94008F8DC2ABD28ED2AC90004E74FFF0A37483
:071AA40021F0A37448F022B9
:101F0D00900094EBF0A3EAF0A3E9F0A3ECF0A3EDBD
:101F1D00F090009FE52AF0A3E52BF090009CE527BB
:101F2D00F0A3E528F0A3E529F0D20BE490009BF097
:011F3D002281
:101F9100900093E0701F90008CEBF0A3EAF0A3E9AE
:101FA100F0E4A3F0A3F0A3ECF0A3EDF0A37401F02F
:081FB100D2997F02227F032276
:0B21B600900093E07002FF227F0122E6
:03000000021828BB
:0C182800787FE4F6D8FD75815702186F38
:10080000E709F608DFFA8046E709F208DFFA803EDA
:1008100088828C83E709F0A3DFFA8032E309F608C7
:10082000DFFA8078E309F208DFFA807088828C832F
:10083000E309F0A3DFFA806489828A83E0A3F608E3
:10084000DFFA805889828A83E0A3F208DFFA804CBD
:1008500080D280FA80C680D4806980F28033801094
:1008600080A680EA809A80A880DA80E280CA8033FD
:1008700089828A83ECFAE493A3C8C582C8CCC58375
:10088000CCF0A3C8C582C8CCC583CCDFE9DEE78045
:100890000D89828A83E493A3F608DFF9ECFAA9F0C4
:1008A000EDFB2289828A83ECFAE0A3C8C582C8CC1A
:1008B000C583CCF0A3C8C582C8CCC583CCDFEADE33
:1008C000E880DB89828A83E493A3F208DFF980CC95
:1008D00088F0EF60010E4E60C388F0ED2402B4048E
:1008E0000050B9F582EB2402B4040050AF23234535
:0608F00082239008507302
:1008F600BB010CE58229F582E5833AF583E02250B7
:1009060006E92582F8E622BBFE06E92582F8E22200
:0D091600E58229F582E5833AF583E493221A
:10092300F8BB010DE58229F582E5833AF583E8F00A
:10093300225006E92582C8F622BBFE05E92582C8B6
:02094300F2229E
:10094500EF8DF0A4A8F0CF8CF0A428CE8DF0A42EC6
:02095500FE2280
:10095700BC000BBE0029EF8DF084FFADF022E4CC84
:10096700F875F008EF2FFFEE33FEEC33FCEE9DEC4D
:10097700984005FCEE9DFE0FD5F0E9E4CEFD22ED93
:10098700F8F5F0EE8420D21CFEADF075F008EF2FDD
:10099700FFED33FD4007985006D5F0F222C398FDCE
:0509A7000FD5F0EA226B
:1009AC00C2D5EC30E709B2D5E4C39DFDE49CFCEE66
:1009BC0030E715B2D5E4C39FFFE49EFE120957C37E
:1009CC00E49DFDE49CFC800312095730D507C3E479
:0609DC009FFFE49EFE22D5
:1009E200A3F8E0C5F025F0F0E582158270021583C8
:0609F200E0C838F0E82225
:1009F800E88FF0A4CC8BF0A42CFCE98EF0A42CFC9E
:100A08008AF0EDA42CFCEA8EF0A4CDA8F08BF0A41B
:100A18002DCC3825F0FDE98FF0A42CCD35F0FCEB7A
:100A28008EF0A4FEA9F0EB8FF0A4CFC5F02ECD393F
:0F0A3800FEE43CFCEAA42DCE35F0FDE43CFC22AC
:100A470075F008758200EF2FFFEE33FECD33CDCC66
:100A570033CCC58233C5829BED9AEC99E5829840E9
:100A67000CF582EE9BFEED9AFDEC99FC0FD5F0D6C6
:100A7700E4CEFBE4CDFAE4CCF9A88222B800C1B9F0
:100A87000059BA002DEC8BF084CFCECDFCE5F0CB2E
:100A9700F97818EF2FFFEE33FEED33FDEC33FCEB67
:100AA70033FB10D703994004EB99FB0FD8E5E4F922
:100AB700FA227818EF2FFFEE33FEED33FDEC33FC0F
:100AC700C933C910D7059BE99A4007EC9BFCE99A03
:100AD700F90FD8E0E4C9FAE4CCFB2275F010EF2F48
:100AE700FFEE33FEED33FDCC33CCC833C810D70748
:100AF7009BEC9AE899400AED9BFDEC9AFCE899F883
:0E0B07000FD5F0DAE4CDFBE4CCFAE4C8F92215
:101DA500C2D5E830E70FB2D5E4C39BFBE49AFAE469
:101DB50099F9E498F8EC30E717B2D5121DDB120A51
:101DC50083E4C39BFBE49AFAE499F9E498F8800369
:101DD500120A8330D50DE4C39FFFE49EFEE49DFD0A
:041DE500E49CFC225C
:100B1500E8600FECC313FCED13FDEE13FEEF13FFBE
:030B2500D8F122E2
:100B2800E86010ECA2E713FCED13FDEE13FEEF13E3
:040B3800FFD8F022D0
:100B3C00E8600FEFC333FFEE33FEED33FDEC33FC17
:030B4C00D8F122BB
:100B4F00E493FC740193FD740293FE740393FF22EC
:0C0B5F00ECF0A3EDF0A3EEF0A3EFF02209
:0C0B6B00A42582F582E5F03583F5832295
:060B77008A838982E47309
:10183400021799E493A3F8E493A34003F68001F21A
:1018440008DFF48029E493A3F85407240CC8C333B5
:10185400C4540F4420C8834004F456800146F6DF84
:10186400E4800B010204081020408090120AE47EF8
:10187400019360BCA3FF543F30E509541FFEE49379
:10188400A360010ECF54C025E060A840B8E493A340
:10189400FAE493A3F8E493A3C8C582C8CAC583CA6B
:1018A400F0A3C8C582C8CAC583CADFE9DEE780BE23
:0113100000DC
:00000001FF
